:020000040000FA
:04000000813192298F
:100008007E1480318B132700131E0B280C281B2805
:100018007F307A060319112812281B2820008C1E0D
:10002800162817282C288431E52480312C28931E83
:100038001E281F282C287A080319232824282C284E
:1000480020000C1E282829282C2885310F258031CE
:1000580027009301191C31283228DE281910C728D7
:10006800E0309700C030960018148F290230E20063
:100078000030E3002700171018142000960197019C
:1000880018148F291810073017020930031916029F
:10009800031C4F2850287F280A30170228300319DC
:1000A80016020318582859287F286808F100710893
:1000B800E40087306406031D622863286D287F30BA
:1000C8007A060319682869286D288431E524803167
:1000D8007B28A7306406031D722873287B287A08BA
:1000E8000319772878287B2885310F25803120004F
:1000F800E201E3018F290F301702A130031916021C
:10010800031C872888288F29270017141810033004
:100118002000E2000030E3008F291F3078067904C0
:10012800031D972898289C28E501E601E701E801C6
:10013800FC3097007C30960018148F291F30F80087
:100148000030F90027001710181420006808F10083
:100158007108E40087306406031DB328B428BB285F
:100168007F307A060319B928BA28BB286928A7302E
:100178006406031DC028C1287B287A080319C528EE
:10018800C6287B28782820006308003A0319CD2860
:100198008F296208003A03193428013A03193A28CA
:1001A800033A03194628013A03199128073A031913
:1001B800A2288F292000111CE228E3288F2911107A
:1001C800822918100E18E928EA288F290130E20040
:1001D8000030E3002700171418108F290E1CF5288B
:1001E800F62870297908803AF10080307102031DE1
:1001F800FF2818307802031C02290329122901302C
:10020800F1007808E83E890A0A29F135890B09299D
:100218007108F20072082000E50470297908803A14
:10022800F10080307102031D1B2918307802031871
:100238001E291F293B297908803AF1008030710274
:10024800031D282910307802031C2B292C293B294F
:100258000130F1007808F03E890A3329F135890B1D
:1002680032297108F20072082000E6047029790822
:10027800803AF10080307102031D44291030780261
:1002880003184729482964297908803AF100803001
:100298007102031D512908307802031C542955297D
:1002A80064290130F1007808F83E890A5C29F135A3
:1002B800890B5B297108F20072082000E704702995
:1002C8000130F100780A6929F135890B682971082C
:1002D800F20072082000E8041810FF30F807FF3019
:1002E800F93D780A031D7C29790A031D7C297D299B
:1002F8008F290430E2000030E3008F296308003AB8
:10030800031987298F296208003A0319E528033A57
:100318000319F2288F298B177E100900813194293F
:100328005E30840085308500783086000030870094
:10033800033085315425813146308400843085006E
:1003480020308600003087002A30853154258131DD
:10035800E201E301E401E501E601E701E8017E10BD
:1003680020008331362B2000DB01DC01D701D801C6
:10037800D501D601DD01DE014E08D3005308D207AE
:10038800053050065104031DCA29CB29D329013051
:10039800D7000030D8000130D5000030D600500812
:1003A8005104031DD829D929E5290130D700003087
:1003B800D8000130D5000030D6000130DD00003013
:1003C800DE004F08E0004E08DF006008803AD300E6
:1003D80080305302031DF22901305F020318F5290A
:1003E800F629F729D52A01302000D2020A30F30075
:1003F8000030F4005108F6005008F5008331F2236C
:10040800813174082000DA007308D9004E08FE3ED6
:10041800D300FF304F3DD40060085406031D162A50
:100428005F085306031D192A1A2A1C2AD701D80166
:100438004E08FE3ED300FF304F3DD40060085406FE
:10044800031D282A5F085306031D2B2A2C2A3B2A42
:1004580055035604031D312A322A3B2A5908303ED7
:10046800D30052088600870153088100C42A500827
:100478005104031D402A412A592A4F086006031DCA
:10048800472A4E085F0603194A2A4B2A592A5B0352
:100498005C04031D502A512A592A2030D3005208DF
:1004A8008600870153088100C42A50085104031D9F
:1004B8005E2A5F2A942A4F086006031D652A4E08A3
:1004C8005F060319682A692A942A5B085C04031DDD
:1004D8006E2A6F2A942A57085804031D742A752A0D
:1004E800942A5D085E04031D7A2A7B2A822A2D300D
:1004F800D300520886008701530881005D035E041B
:10050800031D872A882A8F2A2030D30052088600A4
:100518008701530881000130DB000030DC00C42A69
:100528004E08FF3ED300FF304F3DD400600854060C
:10053800031DA02A5F085306031DA32AA42AAC2A78
:100548002E30D30052088600870153088100C42A40
:100558005908303ED30052088600870153088100AD
:100568000A30F3000030F4005108F6005008F50096
:100578008231D622813174082000D1007308D0005E
:10058800FF30DF07FF30E03D6008803AD30080305D
:100598005302031DD12A01305F020318D42AD52A39
:1005A800F72908002000CB01F41FDB2ADC2AE32A04
:1005B800F309F409F30A0319F40ACB01CB0AF61F6D
:1005C800E62AE72AF02AF509F609F50A0319F60AD0
:1005D8000130F7007708CB06CC01CD01730874040D
:1005E8000319F72AF82A272BCA01CA0A042B013053
:1005F800F335F40D890BFC2A0130F7007708CA0798
:10060800F41F072B082BFB2A0130CC35CD0D890BA5
:10061800092B74087602031D132B73087502031C3B
:10062800162B172B1C2B7308F5027408F63B4C1479
:100638000130F436F30C890B1D2B0130CA02031D5F
:10064800262B272B082B4B0803192B2B2C2B312B54
:10065800CC09CD09CC0A0319CD0A4D08F4004C0881
:10066800F300080085314225833112303D00A50092
:1006780015303C00A0001430A20014303D00920058
:10068800240014132030950020000E16C0308B0073
:1006980027001116911693011710181499018B153C
:1006A800703020009800181021001114200011103B
:1006B8008331952383318531352583314230843127
:1006C800B62483317A082000E1006108F300013084
:1006D8008431FB248331C0308431992483317F30C5
:1006E8007A06031D782B792B7E2B22308431B62491
:1006F8008331662B05302000CE000030CF00210862
:10070800D1002008D0003930E1006108D2008131E1
:10071800B721833132308431B6248331662B81315D
:10072800922902302000CB008630CA009930890B0C
:100738009B2BCA0B9B2BCB0B9B2BF301F30A303063
:100748008531232583310D302000CA00FB30890B09
:10075800AB2BCA0BAB2B0032F301F30A30308531D7
:100768002325833103302000CA009730890BBA2B28
:10077800CA0BBA2B0032F301F30A30308531232536
:10078800833103302000CA009730890BC92BCA0B6C
:10079800C92B0032F301F30A203085312325833138
:1007A80003302000CA009730890BD82BCA0BD82BEE
:1007B80000322E30843199248331083084319924D1
:1007C80083310C3084319924833106308431992463
:1007D8008331023084319924833108002000CB0111
:1007E800F61FF72BF82BFF2BF509F609F50A031965
:1007F800F60ACB01CB0AF41F022C032C082CF309B0
:10080800F409F30A0319F40A7308740403190D2C84
:100818000E2C372CCA01CA0A1A2C0130F335F40DF4
:10082800890B122C0130F7007708CA07F41F1D2C1A
:100838001E2C112C74087602031D242C73087502D3
:10084800031C272C282C2C2C7308F5027408F63B63
:100858000130F436F30C890B2D2C0130CA02031D2C
:10086800362C372C1E2C4B0803193B2C3C2C412CC6
:10087800F509F609F50A0319F60A7608F400750869
:10088800F30008001634033456346F346C342034C3
:100898003A34203420344D345534543445342034DB
:1008A800203420342034003456346F346C342034EF
:1008B8003A342034203478347834783478347834BE
:1008C80020346434423400344C344D3431343934B7
:1008D800373432344D34003422008C018D018E01BE
:1008E800333021008C008D010F308E000E30230034
:1008F8008E008D0103308C0024008D018C018E0147
:100908002100951725008C018D018E0137302600B6
:100918008C00F0308D00FF308E003F3027008C00B7
:10092800F0308D00FF308E000800F600F301F30A66
:100938007608853123258431F301F30A7608F5001A
:100948000330F535FF3E031DA52C7535853123256C
:1009580084310630F5003030890BB02CF50BB02C03
:10096800003208002000CA00C52C4A08860087010A
:1009780001088431CE2484310130F7007708200043
:10098800CA074A08860087010108031DCC2CCD2C14
:10099800B92C0800F600F301760885312325843147
:1009A800F3017608F5000330F535FF3E031DD82C1A
:1009B80075358531232584312130890BE12C0000E0
:1009C80008000130F0007008FA0761307A02031C51
:1009D800EE2CEF2CF52C0A302000A0070030A13DAA
:1009E800FA2C05302000A0070030A13D0800F400D3
:1009F80020000E127408FF3E24009100141C052DDF
:100A0800062D022D73089100141C0B2D0C2D082D9A
:100A180020000E1608000130FA0260307A02031C2A
:100A2800162D172D1D2DF6302000A007FF30A13DF3
:100A3800222DFB302000A007FF30A13D0800F40064
:100A48007408F03922008D007308031D2C2D2D2DFC
:100A5800302D20000E17322D20000E138E178E1306
:100A6800080001308431992485312730F700F530AA
:100A7800890B3C2DF70B3C2D0000080084317024B5
:100A8800853185314C25853185315A2585310800D8
:100A98007030210099009A01980124009D010800F6
:100AA800FE0012001E00FE0B552D003416302100EA
:0A0AB800970008001F3400347F345B
:020000040001F9
:04000E00E4FFFFFE0E
:00000001FF
